{
  "contractName": "Charitable_Organization",
  "abi": [
    {
      "inputs": [],
      "payable": true,
      "stateMutability": "payable",
      "type": "constructor"
    },
    {
      "anonymous": false,
      "inputs": [
        {
          "indexed": false,
          "internalType": "string",
          "name": "message",
          "type": "string"
        },
        {
          "indexed": true,
          "internalType": "address",
          "name": "accountAddress",
          "type": "address"
        },
        {
          "indexed": false,
          "internalType": "uint256",
          "name": "amount",
          "type": "uint256"
        }
      ],
      "name": "AboveLimitTransaction",
      "type": "event"
    },
    {
      "anonymous": false,
      "inputs": [
        {
          "indexed": false,
          "internalType": "string",
          "name": "message",
          "type": "string"
        },
        {
          "indexed": false,
          "internalType": "address[]",
          "name": "suspectedAccounts",
          "type": "address[]"
        }
      ],
      "name": "HighBalance",
      "type": "event"
    },
    {
      "anonymous": false,
      "inputs": [
        {
          "indexed": false,
          "internalType": "address",
          "name": "",
          "type": "address"
        },
        {
          "indexed": false,
          "internalType": "uint256",
          "name": "",
          "type": "uint256"
        }
      ],
      "name": "deposit",
      "type": "event"
    },
    {
      "anonymous": false,
      "inputs": [
        {
          "indexed": false,
          "internalType": "address",
          "name": "",
          "type": "address"
        },
        {
          "indexed": false,
          "internalType": "uint256",
          "name": "",
          "type": "uint256"
        }
      ],
      "name": "fallbackCalled",
      "type": "event"
    },
    {
      "anonymous": false,
      "inputs": [
        {
          "indexed": false,
          "internalType": "address",
          "name": "_address",
          "type": "address"
        },
        {
          "indexed": false,
          "internalType": "uint256",
          "name": "ampunt",
          "type": "uint256"
        }
      ],
      "name": "withdrawal",
      "type": "event"
    },
    {
      "constant": true,
      "inputs": [],
      "name": "MaxEther",
      "outputs": [
        {
          "internalType": "uint256",
          "name": "",
          "type": "uint256"
        }
      ],
      "payable": false,
      "stateMutability": "view",
      "type": "function"
    },
    {
      "constant": true,
      "inputs": [],
      "name": "ThresholdValue",
      "outputs": [
        {
          "internalType": "uint256",
          "name": "",
          "type": "uint256"
        }
      ],
      "payable": false,
      "stateMutability": "view",
      "type": "function"
    },
    {
      "constant": true,
      "inputs": [],
      "name": "owner",
      "outputs": [
        {
          "internalType": "address",
          "name": "",
          "type": "address"
        }
      ],
      "payable": false,
      "stateMutability": "view",
      "type": "function"
    },
    {
      "constant": false,
      "inputs": [
        {
          "internalType": "address",
          "name": "_address",
          "type": "address"
        },
        {
          "internalType": "string",
          "name": "_name",
          "type": "string"
        },
        {
          "internalType": "string",
          "name": "_id",
          "type": "string"
        }
      ],
      "name": "add_donatee",
      "outputs": [],
      "payable": false,
      "stateMutability": "nonpayable",
      "type": "function"
    },
    {
      "constant": true,
      "inputs": [],
      "name": "get_Donatees",
      "outputs": [
        {
          "internalType": "address[]",
          "name": "",
          "type": "address[]"
        }
      ],
      "payable": false,
      "stateMutability": "view",
      "type": "function"
    },
    {
      "constant": true,
      "inputs": [
        {
          "internalType": "address",
          "name": "_address",
          "type": "address"
        }
      ],
      "name": "check_donetees_information",
      "outputs": [
        {
          "internalType": "string",
          "name": "name",
          "type": "string"
        },
        {
          "internalType": "string",
          "name": "id",
          "type": "string"
        },
        {
          "internalType": "uint256",
          "name": "balance",
          "type": "uint256"
        }
      ],
      "payable": false,
      "stateMutability": "view",
      "type": "function"
    },
    {
      "constant": false,
      "inputs": [
        {
          "internalType": "address",
          "name": "_address",
          "type": "address"
        },
        {
          "internalType": "uint256",
          "name": "_amount",
          "type": "uint256"
        }
      ],
      "name": "depositFund",
      "outputs": [],
      "payable": true,
      "stateMutability": "payable",
      "type": "function"
    },
    {
      "constant": false,
      "inputs": [
        {
          "internalType": "address",
          "name": "from",
          "type": "address"
        },
        {
          "internalType": "address",
          "name": "to",
          "type": "address"
        },
        {
          "internalType": "uint256",
          "name": "RM",
          "type": "uint256"
        }
      ],
      "name": "donateFunds",
      "outputs": [
        {
          "internalType": "bool",
          "name": "",
          "type": "bool"
        }
      ],
      "payable": true,
      "stateMutability": "payable",
      "type": "function"
    },
    {
      "constant": false,
      "inputs": [
        {
          "internalType": "address",
          "name": "_address",
          "type": "address"
        },
        {
          "internalType": "uint256",
          "name": "_value",
          "type": "uint256"
        }
      ],
      "name": "withdrawFunds",
      "outputs": [],
      "payable": true,
      "stateMutability": "payable",
      "type": "function"
    },
    {
      "constant": true,
      "inputs": [
        {
          "internalType": "address",
          "name": "_address",
          "type": "address"
        }
      ],
      "name": "getBalance",
      "outputs": [
        {
          "internalType": "uint256",
          "name": "",
          "type": "uint256"
        }
      ],
      "payable": false,
      "stateMutability": "view",
      "type": "function"
    }
  ],
  "bytecode": "0x6080604052600a600455603260055533600160006101000a81548173ffffffffffffffffffffffffffffffffffffffff021916908373ffffffffffffffffffffffffffffffffffffffff16021790555034600360003373ffffffffffffffffffffffffffffffffffffffff1673ffffffffffffffffffffffffffffffffffffffff168152602001908152602001600020600082825401925050819055506111fd806100ab6000396000f3fe6080604052600436106100905760003560e01c80638da5cb5b116100595780638da5cb5b1461033d578063beb7363c14610394578063c1075329146103bf578063d67be7c31461040d578063f8b2cb4f1461058c57610090565b8062c15bde146100955780631b2e7d42146100e35780633a7f331b146101695780633cf5a460146101d557806355307d8414610200575b600080fd5b6100e1600480360360408110156100ab57600080fd5b81019080803573ffffffffffffffffffffffffffffffffffffffff169060200190929190803590602001909291905050506105f1565b005b61014f600480360360608110156100f957600080fd5b81019080803573ffffffffffffffffffffffffffffffffffffffff169060200190929190803573ffffffffffffffffffffffffffffffffffffffff16906020019092919080359060200190929190505050610860565b604051808215151515815260200191505060405180910390f35b34801561017557600080fd5b5061017e610b1f565b6040518080602001828103825283818151815260200191508051906020019060200280838360005b838110156101c15780820151818401526020810190506101a6565b505050509050019250505060405180910390f35b3480156101e157600080fd5b506101ea610bad565b6040518082815260200191505060405180910390f35b34801561020c57600080fd5b5061024f6004803603602081101561022357600080fd5b81019080803573ffffffffffffffffffffffffffffffffffffffff169060200190929190505050610bb3565b604051808060200180602001848152602001838103835286818151815260200191508051906020019080838360005b8381101561029957808201518184015260208101905061027e565b50505050905090810190601f1680156102c65780820380516001836020036101000a031916815260200191505b50838103825285818151815260200191508051906020019080838360005b838110156102ff5780820151818401526020810190506102e4565b50505050905090810190601f16801561032c5780820380516001836020036101000a031916815260200191505b509550505050505060405180910390f35b34801561034957600080fd5b50610352610d8b565b604051808273ffffffffffffffffffffffffffffffffffffffff1673ffffffffffffffffffffffffffffffffffffffff16815260200191505060405180910390f35b3480156103a057600080fd5b506103a9610db1565b6040518082815260200191505060405180910390f35b61040b600480360360408110156103d557600080fd5b81019080803573ffffffffffffffffffffffffffffffffffffffff16906020019092919080359060200190929190505050610db7565b005b34801561041957600080fd5b5061058a6004803603606081101561043057600080fd5b81019080803573ffffffffffffffffffffffffffffffffffffffff1690602001909291908035906020019064010000000081111561046d57600080fd5b82018360208201111561047f57600080fd5b803590602001918460018302840111640100000000831117156104a157600080fd5b91908080601f016020809104026020016040519081016040528093929190818152602001838380828437600081840152601f19601f8201169050808301925050505050505091929192908035906020019064010000000081111561050457600080fd5b82018360208201111561051657600080fd5b8035906020019184600183028401116401000000008311171561053857600080fd5b91908080601f016020809104026020016040519081016040528093929190818152602001838380828437600081840152601f19601f820116905080830192505050505050509192919290505050610f28565b005b34801561059857600080fd5b506105db600480360360208110156105af57600080fd5b81019080803573ffffffffffffffffffffffffffffffffffffffff169060200190929190505050611013565b6040518082815260200191505060405180910390f35b80600360008473ffffffffffffffffffffffffffffffffffffffff1673ffffffffffffffffffffffffffffffffffffffff168152602001908152602001600020600082825401925050819055506004548111156106b3578173ffffffffffffffffffffffffffffffffffffffff167f67e2f44dc4c14d2f94e9376713bf336b0f5a221a648a1251fde8d09fb157277c826040518080602001838152602001828103825260258152602001806111a4602591396040019250505060405180910390a25b6000600360003373ffffffffffffffffffffffffffffffffffffffff1673ffffffffffffffffffffffffffffffffffffffff16815260200190815260200160002054905060055481111561085b5761070a8361105c565b6107755760028390806001815401808255809150509060018203906000526020600020016000909192909190916101000a81548173ffffffffffffffffffffffffffffffffffffffff021916908373ffffffffffffffffffffffffffffffffffffffff160217905550505b7f9ec1bcaddb44ad76ffa1129f34f814f19d96b62f66f34b7d5b992083928c1bf26002604051808060200180602001838103835260138152602001807f4c61756e646572696e6720416c65727421212100000000000000000000000000815250602001838103825284818154815260200191508054801561084b57602002820191906000526020600020905b8160009054906101000a900473ffffffffffffffffffffffffffffffffffffffff1673ffffffffffffffffffffffffffffffffffffffff1681526020019060010190808311610801575b5050935050505060405180910390a15b505050565b600081600360008673ffffffffffffffffffffffffffffffffffffffff1673ffffffffffffffffffffffffffffffffffffffff1681526020019081526020016000206000828254039250508190555081600360008573ffffffffffffffffffffffffffffffffffffffff1673ffffffffffffffffffffffffffffffffffffffff16815260200190815260200160002060008282540192505081905550600454821115610971578373ffffffffffffffffffffffffffffffffffffffff167f67e2f44dc4c14d2f94e9376713bf336b0f5a221a648a1251fde8d09fb157277c836040518080602001838152602001828103825260258152602001806111a4602591396040019250505060405180910390a25b600554600360008573ffffffffffffffffffffffffffffffffffffffff1673ffffffffffffffffffffffffffffffffffffffff168152602001908152602001600020541115610b14576109c38361105c565b610a2e5760028390806001815401808255809150509060018203906000526020600020016000909192909190916101000a81548173ffffffffffffffffffffffffffffffffffffffff021916908373ffffffffffffffffffffffffffffffffffffffff160217905550505b7f9ec1bcaddb44ad76ffa1129f34f814f19d96b62f66f34b7d5b992083928c1bf26002604051808060200180602001838103835260138152602001807f4c61756e646572696e6720416c657274212121000000000000000000000000008152506020018381038252848181548152602001915080548015610b0457602002820191906000526020600020905b8160009054906101000a900473ffffffffffffffffffffffffffffffffffffffff1673ffffffffffffffffffffffffffffffffffffffff1681526020019060010190808311610aba575b5050935050505060405180910390a15b600190509392505050565b60606007805480602002602001604051908101604052809291908181526020018280548015610ba357602002820191906000526020600020905b8160009054906101000a900473ffffffffffffffffffffffffffffffffffffffff1673ffffffffffffffffffffffffffffffffffffffff1681526020019060010190808311610b59575b5050505050905090565b60045481565b606080600080600660008673ffffffffffffffffffffffffffffffffffffffff1673ffffffffffffffffffffffffffffffffffffffff1681526020019081526020016000209050600360008673ffffffffffffffffffffffffffffffffffffffff1673ffffffffffffffffffffffffffffffffffffffff168152602001908152602001600020549150806000018160010183828054600181600116156101000203166002900480601f016020809104026020016040519081016040528092919081815260200182805460018160011615610100020316600290048015610cda5780601f10610caf57610100808354040283529160200191610cda565b820191906000526020600020905b815481529060010190602001808311610cbd57829003601f168201915b50505050509250818054600181600116156101000203166002900480601f016020809104026020016040519081016040528092919081815260200182805460018160011615610100020316600290048015610d765780601f10610d4b57610100808354040283529160200191610d76565b820191906000526020600020905b815481529060010190602001808311610d5957829003601f168201915b50505050509150935093509350509193909250565b600160009054906101000a900473ffffffffffffffffffffffffffffffffffffffff1681565b60055481565b600360008373ffffffffffffffffffffffffffffffffffffffff1673ffffffffffffffffffffffffffffffffffffffff16815260200190815260200160002054811115610e6c576040517f08c379a00000000000000000000000000000000000000000000000000000000081526004018080602001828103825260168152602001807f6163636f756e742062616c616e6365206973206c6f770000000000000000000081525060200191505060405180910390fd5b80600360008473ffffffffffffffffffffffffffffffffffffffff1673ffffffffffffffffffffffffffffffffffffffff168152602001908152602001600020600082825403925050819055507f5a6b26bafd3957bf06ea3b4915f51221953ed272573c779820e6e39df3e646cf8282604051808373ffffffffffffffffffffffffffffffffffffffff1673ffffffffffffffffffffffffffffffffffffffff1681526020018281526020019250505060405180910390a15050565b6000600660008573ffffffffffffffffffffffffffffffffffffffff1673ffffffffffffffffffffffffffffffffffffffff168152602001908152602001600020905082816000019080519060200190610f839291906110fe565b5081816001019080519060200190610f9c9291906110fe565b506000816002018190555060078490806001815401808255809150509060018203906000526020600020016000909192909190916101000a81548173ffffffffffffffffffffffffffffffffffffffff021916908373ffffffffffffffffffffffffffffffffffffffff1602179055505050505050565b6000600360008373ffffffffffffffffffffffffffffffffffffffff1673ffffffffffffffffffffffffffffffffffffffff168152602001908152602001600020549050919050565b600080600090505b6002805490508110156110f3578273ffffffffffffffffffffffffffffffffffffffff166002828154811061109557fe5b9060005260206000200160009054906101000a900473ffffffffffffffffffffffffffffffffffffffff1673ffffffffffffffffffffffffffffffffffffffff1614156110e65760019150506110f9565b8080600101915050611064565b50600090505b919050565b828054600181600116156101000203166002900490600052602060002090601f016020900481019282601f1061113f57805160ff191683800117855561116d565b8280016001018555821561116d579182015b8281111561116c578251825591602001919060010190611151565b5b50905061117a919061117e565b5090565b6111a091905b8082111561119c576000816000905550600101611184565b5090565b9056fe7472616e73616374696f6e20616d6f756e742061626f766520746872656173686f6c642120a265627a7a723158203063aa2bc44783d9eeaa402e965907f48a016443d3882ab0b586a9666bc6730564736f6c63430005100032",
  "source": "// SPDX-License-Identifier: MIT\npragma solidity >=0.4.16 <0.9.0;\ncontract Charitable_Organization\n{\n    \n    uint256 private bankLiquidity;       // Balance of whole contract\n    address public owner;\n    address[] suspectedAccounts;\n    mapping(address => uint256) private customerBalance;\n    uint public ThresholdValue = 10;\n    uint public MaxEther= 50;\n    struct Donatee {\n        string name;\n        string id;\n        uint balance;\n    }\n    mapping (address => Donatee) person;\n    address[] all_Donatee;\n    //Function adding values to the mapping\n    function add_donatee(address _address, string memory _name, string memory _id) public {\n       Donatee storage  _person\n          = person[_address];\n  \n        _person.name = _name;\n        _person.id = _id;\n        _person.balance = 0;\n        all_Donatee.push(_address); //push returns length so -1 at the end \n  \n    }\n    // Function to retrieve \n     // values from the mapping\n     function get_Donatees() view public returns (address  [] memory) {\n        return all_Donatee;\n    }\n    function check_donetees_information (address _address) view public returns(string memory name, string memory id, uint balance){\n        Donatee storage  _person = person[_address];\n        balance = customerBalance[_address];\n        return(_person.name, _person.id, balance);\n    }\n    constructor() public payable {\n        \n        owner = msg.sender;\n        \n        customerBalance[msg.sender] += msg.value;\n        \n    }\n    event fallbackCalled(address, uint256);\n    event deposit(address, uint256);\n    event withdrawal(address _address, uint256 ampunt);\n    // event Suspect(address _address, uint amount, string message);\n    // emitted when a trasnaction value > threashold\n    event AboveLimitTransaction(\n        string message,\n        address indexed accountAddress,\n        uint256 amount\n    );\n    // emitted when the account balance is > max\n    event HighBalance(string message, address[] suspectedAccounts);\n    // event MoneyLaundering(string m1);\n\n    modifier ownerOnly() {\n        require(msg.sender == owner, \"message.sender is not the bank owner\");\n        _;\n    }\n\n    function depositFund(address _address, uint _amount) public payable  {\n        // add account to accounts index after making sure its not already there\n        \n\n        // add the amount to the accounts balance\n        // no neeed to manually transfer msg.value to the contract about (bank)\n        // because its automatically done\n        customerBalance[_address] += _amount;\n\n        // send an alert if its above the threashold\n        if (_amount > ThresholdValue) {\n            emit AboveLimitTransaction(\n                \"transaction amount above threashold! \",\n                _address,\n                _amount\n                \n            );\n        }\n        uint balance = customerBalance[msg.sender];\n        // send an alert if the bank has more then 50 ethers\n        if (balance > MaxEther) {\n            if (!isInAccounts(_address)){\n                suspectedAccounts.push(_address);\n            }\n            emit HighBalance(\"Laundering Alert!!!\", suspectedAccounts );\n        }\n    }\n    // @returns true if msg.sender is already in known accounts\n    function isInAccounts(address _address) private view returns (bool) {\n        for (uint256 i = 0; i < suspectedAccounts.length; i++) {\n            if (suspectedAccounts[i] == _address){\n                return true;\n            }\n            \n        }\n        return false;\n    }\n    /** Customer Deposit payable function */\n    function donateFunds(address from, address to, uint256 RM) external payable returns(bool){\n        \n        customerBalance[from] -=  RM;\n        customerBalance[to] +=  RM;\n        if (RM > ThresholdValue)\n        {\n            // msg.sender.transfer(address(this).balance);\n           \n            // require(RM <= ThresholdValue, \"Warning\");\n            emit AboveLimitTransaction(\n                \"transaction amount above threashold! \",\n                from,\n                RM\n            );\n            \n        }\n        // customerBalance[msg.sender] += RM;\n        // customerBalance[forum] +=  RM;\n        \n        if (customerBalance[to] >  MaxEther)\n        {\n            // msg.sender.transfer(address(this).balance);\n             if (!isInAccounts(to)){\n                suspectedAccounts.push(to);\n            }\n            emit HighBalance(\"Laundering Alert!!!\", suspectedAccounts );\n            // emit MoneyLaundering (\"Laundering Alert!!!\");\n        }\n        \n        // emit deposit(from, RM);\n    \n        return true;\n    }\n\n    /** Pull and Push / Check Effects and Interactions patterns */\n    function withdrawFunds(address _address, uint256 _value) public payable {\n        require(_value <= customerBalance[_address], \"account balance is low\");\n        customerBalance[_address] -= _value;   // Update the state \n        // msg.sender.transfer(_value);       // Push funds\n        emit withdrawal(_address, _value);\n    }\n\n\n\n    /** Fetch Customer Balance */\n    // function getCustomerBalance(address _address) public view returns(uint256) {\n    //         return customerBalance[_address];\n    // }\n    function getBalance(address _address) public view  returns (uint256) {\n        return  customerBalance[_address];\n    }\n\n\n}",
  "sourcePath": "/home/fahim/Blockchain/Smart-Charity/contracts/SmartCharity.sol",
  "compiler": {
    "name": "solc",
    "version": "0.5.16+commit.9c3226ce.Emscripten.clang"
  },
  "schemaVersion": "3.4.4",
  "updatedAt": "2022-02-05T16:59:52.120Z",
  "networkType": "ethereum",
  "devdoc": {
    "methods": {}
  },
  "userdoc": {
    "methods": {
      "donateFunds(address,address,uint256)": {
        "notice": "Customer Deposit payable function "
      },
      "getBalance(address)": {
        "notice": "Fetch Customer Balance "
      },
      "withdrawFunds(address,uint256)": {
        "notice": "Pull and Push / Check Effects and Interactions patterns "
      }
    }
  }
}